:020000040800F2
:1000000048D1002069070008710500087305000841
:10001000770500087B0500087F0500080000000048
:100020000000000000000000000000008305000840
:100030008505000800000000870500088905000804
:100040008307000883070008830700088307000868
:100050008307000883070008830700088307000858
:100060008307000883070008830700088307000848
:100070008307000883070008830700088307000838
:100080008307000883070008830700088307000828
:100090008307000883070008830700088307000818
:1000A0008307000883070008830700088307000808
:1000B000830700088307000879A900088307000860
:1000C00083070008830700088307000883070008E8
:1000D00083070008216000082D61000883070008DD
:1000E00083070008830700088307000883070008C8
:1000F00083070008830700088307000883070008B8
:1001000083070008E15700088307000883070008F9
:100110008307000883070008830700080D5D0008B7
:100120008307000883070008830700088307000887
:1001300000F002F800F06BF80AA090E8000C82448E
:100140008344AAF10107DA4501D100F060F8AFF26B
:10015000090EBAE80F0013F0010F18BFFB1A43F0A5
:100160000103184798740300B87403000A444FF061
:10017000000C10F8013B13F0070408BF10F8014B06
:100180001D1108BF10F8015B641E05D010F8016B4B
:10019000641E01F8016BF9D113F0080F1EBF10F8AF
:1001A000014BAD1C0C1B09D16D1E58BF01F801CBD2
:1001B000FAD505E014F8016B01F8016B6D1EF9D555
:1001C0009142D6D37047000000230024002500266A
:1001D000103A28BF78C1FBD8520728BF30C148BFAA
:1001E0000B60704764290BF0D58175290BF0D28123
:1001F00078290BF00B8263290BF0A58473290BF08F
:10020000AA84002070471FB51FBD10B510BD0BF0AC
:10021000EFFC1146FFF7F7FF00F040F80BF00DFD83
:1002200003B4FFF7F2FF03BC05F0A0FE10B5894848
:1002300090F8560030B1012808D002280AD00328CF
:1002400010D10BE084A00BF033F90BE088A00BF089
:100250002FF907E08CA00BF02BF903E090A00BF036
:1002600027F900BF00BF7B4890F82C1092A00BF03C
:100270001FF97848B0F8541096A00BF019F975489A
:10028000D0E91220030343EA125196A00BF010F9B3
:100290007048016D99A00BF00BF910BD08B505F081
:1002A000F7FD4FF4A06000F07FFA02F015FB02F0BA
:1002B0007FFE02F093FB41F61F41632002F0BCFB7E
:1002C0004FF4E13005F060FE9248416848208847CD
:1002D00002F099FD02F05AFC05F07BFB002006F0CD
:1002E00006F802F0A9FF8CA00BF0E2F803F059F831
:1002F000412003F093F830E04FF4FA7005F004FE6B
:100300008A4800686FEA00008949C1F894014FF0FB
:100310000E024FF000014FF00A0002F00AFD0F221A
:1003200000211C2002F005FD102200212E2002F0E9
:1003300000FD11220021402002F0FBFC12220021CE
:10034000522002F0F6FC13220021642002F0F1FC9E
:1003500078A20221002002F0ADFC04F074FA00281B
:10036000CAD1FFF763FF09F023FB76490122086831
:1003700075A107F0B6FC02F009FC7448082380223E
:1003800000210090084602F005FD41F2883005F09A
:10039000BBFD02F0FBFB002211460A2002F0C9FC63
:1003A000012200211C2002F0C4FC022200212E2088
:1003B00002F0BFFC03220021402002F0BAFC04221C
:1003C0000021522002F0B5FC05220021642002F039
:1003D000B0FC13225EA16248006807F0ADFC6048E3
:1003E000006807F091FF34E003F0D2FA5D4800782E
:1003F000E8B9002211460A2002F09BFC01220021EC
:100400001C2002F096FC022200212E2002F091FC1A
:1004100003220021402002F08CFC04220021522003
:1004200002F087FC05220021642002F082FC4D4886
:10043000007803280DD100204A49087001204A495C
:1004400008604FF0320005F05FFD00204749C1F819
:100450008801C9E7700D00204361726420547970EF
:10046000653A534453432056312E310D0A000000A3
:100470004361726420547970653A53445343205663
:10048000322E300D0A0000004361726420547970EE
:10049000653A534448432056322E300D0A0000007E
:1004A0004361726420547970653A4D4D4320436135
:1004B00072640D0A0000000043617264204D616E99
:1004C00075666163747572657249443A25640D0AF4
:1004D0000000000043617264205243413A25640DDC
:1004E0000A000000436172642043617061636974B3
:1004F000793A2564204D420D0A0000004361726480
:1005000020426C6F636B53697A653A25640D0A0D5E
:100510000A000000100C0020B5E7D7D3D0ADBBE136
:10052000C3C5BDFBCFB5CDB30D0A000094812142F8
:100530000080214253442043617264204572726FEF
:1005400072210000000B0020303A0000A8060020B5
:10055000303A2F434152445F5549442E637376002D
:10056000040B0020A90A0020888123420080234236
:10057000704700BFFEE700BFFEE700BFFEE700BF19
:10058000FEE7704770477047704700000CB50020C9
:10059000019000906B48006840F480306949086021
:1005A00000BF6848006800F4003000900198401CCB
:1005B0000190009818B90198B0F5A06FF1D1614889
:1005C000006810F4003F02D00120009001E00020FC
:1005D00000900098012842D15B48006840F010006C
:1005E000594908600846006820F003000860084682
:1005F000006840F002000860524840685149486075
:100600000846406848600846406840F4806048609A
:100610000846406820F47C1048600846406840F472
:10062000E81048600846006840F08070086000BF2D
:100630004448006810F0007FFAD04248406820F03B
:100640000300404948600846406840F002004860A6
:1006500000BF3C48406800F00C000828F9D10CBDF0
:1006600010B5FFF793FF10BD10B53648006840F095
:10067000010034490860084640683449084031495F
:10068000486008460068324908402E49086008461C
:10069000006820F4802008600846406820F4FE00CE
:1006A00048604FF41F008860FFF7DAFF4FF00060EA
:1006B0002849086010BD10B5002100200022214B00
:1006C0005B6803F00C0121B1042906D0082928D168
:1006D00007E0214B214C236027E01F4B1F4C236078
:1006E00023E0184B5B6803F47010164B5B6803F44F
:1006F0008032022303EB904022B9194B4343174C3D
:1007000023600DE00F4B5B6813F4003F04D0144BE3
:100710004343124C236003E00F4B43430F4C2360D1
:1007200003E00D4B0D4C236000BF00BF054B5B6821
:10073000C3F303130B4CE15C084B1B68CB40074C25
:10074000236010BD00100240002002400000FFF8AE
:10075000FFFFF6FE08ED00E000127A000000002026
:1007600000093D000400002009488047094800476F
:10077000FEE7FEE7FEE7FEE7FEE7FEE7FEE7FEE751
:10078000FEE7FEE704480549054A064B70470000AE
:10079000690600083101000848CB002048D100203C
:1007A00048CD002048CD002031490143314A116035
:1007B000704770B5002100230F22C4780CB32D4C74
:1007C000246804F4E064C4F5E064210AC1F1040380
:1007D000CA40447804FA03F18478144021430901A3
:1007E000254C0678A155047804F01F050124AC407F
:1007F00005786D114FF0E02606EB8505C5F8004140
:1008000009E0047804F01F050124AC401B4D067874
:10081000761145F8264070BD194A0A400243154B2F
:100820001B1F1A60704739B1124A121D1268024329
:10083000104B1B1D1A6006E00E4A121D12688243FF
:100840000C4B1B1D1A607047042808D14FF0E021A3
:10085000096941F004014FF0E022116107E04FF017
:10086000E021096921F004014FF0E0221161704795
:100870000000FA050CED00E000E400E080E100E09B
:1008800080FFFF1F01684FF6FE72114001600021DA
:10089000016041608160C1608C49884208D18B4908
:1008A0000839496841F00F01884A083A51608AE0E6
:1008B00086491431884208D184490839496841F091
:1008C000F001824A083A51607DE08049283188422F
:1008D00008D17E490839496841F470617B4A083A79
:1008E000516070E079493C31884208D17749083934
:1008F000496841F47041754A083A516063E07349B0
:100900005031884208D171490839496841F4702151
:100910006E4A083A516056E06C496431884208D109
:100920006A490839496841F47001684A083A5160D7
:1009300049E066497831884208D1644908394968F4
:1009400041F07061614A083A51603CE06049884278
:1009500006D1011F096841F00F01021F116032E04A
:100960005B491431884208D15949091F096841F08F
:10097000F001574A121F116025E05549283188427D
:1009800008D15349091F096841F47061504A121F88
:10099000116018E04E493C31884208D14C49091F8A
:1009A000096841F470414A4A121F11600BE048493E
:1009B0005031884207D14649091F096841F4702126
:1009C000434A121F1160704710B50022026847F6B3
:1009D000F0739A430C6A8B6823430C6923434C6978
:1009E00023438C692343CC6923434C6A23438C6A99
:1009F00023431A430260CB6843600B6883604B68F3
:100A0000C36010BD0021016041608160C16001616F
:100A100041618161C161016241628162704721B1BE
:100A2000026842F00102026004E002684FF6FE73C1
:100A30001A40026070471AB103680B43036002E07A
:100A400003688B4303607047416070470146486804
:100A500080B2704701460020002211F0805F03D071
:100A60001B4B083B1A6802E0184B083B1A680A4205
:100A700001D0012000E00020704710F0805F03D01B
:100A80001349091F086002E010490839486070479F
:100A900001460020002211F0805F03D00C4B083B80
:100AA0001A6802E0094B083B1A680A4201D001208B
:100AB00000E00020704710F0805F03D00449091F58
:100AC000086002E0014908394860704708000240A8
:100AD0000804024010B50446CA48844208D10121E6
:100AE000042000F027FB0021042000F023FB46E057
:100AF000C548844208D10121082000F01BFB0021D9
:100B0000082000F017FB3AE0C048844208D10121D8
:100B1000102000F00FFB0021102000F00BFB2EE056
:100B2000BB48844208D10121202000F003FB0021B2
:100B3000202000F0FFFA22E0B648844208D10121CB
:100B4000402000F0F7FA0021402000F0F3FA16E010
:100B5000B148844208D10121802000F0EBFA002145
:100B6000802000F0E7FA0AE0AC48844207D1012176
:100B7000801500F0DFFA0021A01500F0DBFA10BDAF
:100B800010B50121084600F0D5FA0021012000F03F
:100B9000D1FA10BD2DE9F0410246002500260020C3
:100BA00000230024002791F803C00CF00F0591F8F2
:100BB00003C01CF0100F03D091F802C04CEA0505E9
:100BC00091F800C0BCF1000F31D0146800202BE078
:100BD0004FF0010C0CFA00F3B1F800C00CEA030668
:100BE0009E4220D183004FF00F0C0CFA03F7BC4358
:100BF00005FA03FC4CEA040491F803C0BCF1280F89
:100C000006D14FF0010C0CFA00FCC2F814C00AE047
:100C100091F803C0BCF1480F05D14FF0010C0CFA5C
:100C200000FCC2F810C0401C0828D1D31460B1F8F1
:100C300000C0BCF1FF0F34DD546800202EE000F14D
:100C4000080C4FF0010808FA0CF3B1F800C00CEAE8
:100C500003069E4221D183004FF00F0C0CFA03F7DC
:100C6000BC4305FA03FC4CEA040491F803C0BCF150
:100C7000280F05D100F1080C08FA0CF8C2F814800E
:100C800091F803C0BCF1480F07D100F1080C4FF0F8
:100C9000010808FA0CF8C2F81080401C0828CED3CE
:100CA0005460BDE8F0814FF6FF7101800221817030
:100CB0000421C17070470246002093680B4201D0A6
:100CC000012000E0002070470146886880B270472C
:100CD00002460020D3680B4201D0012000E0002032
:100CE00070470146C86880B2704701617047416132
:100CF00070470AB1016100E041617047C16070470F
:100D00004FF480320A438261816182618269826923
:100D1000704702460020424B18684FF68073184017
:100D200040EA021008433E4B186070473D49C861D5
:100D30007047F0B50A46002300240021002500F08A
:100D40000046B6F1004F02D1354EF16901E0344E54
:100D50007168C0F3034583B200F44016B6F5401F36
:100D600008D121F070612E4E766826F070662C4F07
:100D70007E6012E000F48016B6F5801F06D10326CF
:100D800006FA05F4A14341F0706106E0460D360114
:100D900003FA06F6B14341F0706122B1460D360107
:100DA00003FA06F6314300F00046B6F1004F02D1D7
:100DB0001B4EF16101E01A4E7160F0BD30B50022AA
:100DC0008B071C0F0F2303FA04F2154B08338C100A
:100DD00053F824309343124C08348D1044F82530D6
:100DE00023468C1053F824308C07240F00FA04F4A7
:100DF00023430B4C08348D1044F8253030BD0A498C
:100E00000860704700080140000C014000100140DC
:100E10000014014000180140001C01400020014066
:100E20000000014000002042DC002042DD48006854
:100E300040F00100DB49086008464068DA49084094
:100E4000D849486008460068D8490840D549086034
:100E50000846006820F4802008600846406820F4B6
:100E6000FE0048604FF41F0088607047CD49096854
:100E700021F48031CB4A11601146096821F48021A8
:100E80001160B0F5803F03D0B0F5802F0ED106E0A1
:100E9000C449096841F48031C24A116007E0C14980
:100EA000096841F4A021BF4A116000E000BF00BF03
:100EB000704710B501460022002300204A11012A84
:100EC00002D1B84C236806E0022A02D1B54C236A4D
:100ED00001E0B44C636A01F01F02012494401C42FB
:100EE00001D0012000E0002010BD38B500200090A6
:100EF0000024002500BF3120FFF7DBFF05460098E6
:100F0000401C00900098B0F5A06F01D0002DF2D0E9
:100F10003120FFF7CEFF08B1012400E00024204675
:100F200038BD014600209F4A106820F0F80040EAD2
:100F3000C100106070479E4908607047024600205B
:100F4000984B586820F47C1042EA01031843954BF3
:100F50005860704796490866704701460020914ADC
:100F6000506820F003000843506070478D48406887
:100F700000F00C007047014600208A4A506820F0BB
:100F8000F00008435060704701460020854A5068D1
:100F900020F4E06008435060704701460020814A19
:100FA000506820F4605040EAC1005060704729B199
:100FB0007C4A527A02437B4B5A7204E0794A527A55
:100FC0008243784B5A7270477A49086070470146ED
:100FD0000020744A506820F4404008435060704735
:100FE0000021754A11706F4A82F82010012802D042
:100FF000042808D103E001216F4A117004E00521A3
:101000006D4A117000E000BF00BF70476B49086077
:1010100070476449096A0143624A1162704767492F
:1010200044390860704730B50021002200240023B5
:101030005C4D6D6805F00C0121B1042905D008292B
:1010400023D105E05E4D056022E05D4D05601FE0A7
:10105000544D6D6805F47012524D6D6805F480347E
:10106000022505EB92421CB9564D554305600BE035
:101070004C4D6D6815F4003F03D0524D554305604B
:1010800002E04F4D5543056002E04D4D056000BF45
:1010900000BF444D6D6805F0F00109094A4D6B5CD5
:1010A0000568DD4045603F4D6D6805F4E061090A63
:1010B000454D6B5C4568DD4085603A4D6D6805F4D3
:1010C0006051C90A404D6B5C4568DD40C560354DD7
:1010D0006D6805F44041890B3C4D6B5CC568B5FB00
:1010E000F3F5056130BD29B12E4A526902432D4BFB
:1010F0005A6104E02B4A526982432A4B5A61704775
:1011000029B1284A92690243264B9A6104E0254A94
:1011100092698243234B9A61704729B1214AD2696F
:101120000243204BDA6104E01E4AD26982431D4B20
:10113000DA61704729B11B4AD2680243194BDA6061
:1011400004E0184AD2688243164BDA60704729B12E
:10115000144A12690243134B1A6104E0114A1269DE
:101160008243104B1A617047144940390860704738
:101170000F49C86470470B49C87170470948406AF5
:1011800040F0807007494862704701460020054AD8
:1011900092680A4201D0012000E000207047014916
:1011A00088727047001002400000FFF8FFFFF6FE53
:1011B00000004242D80042422010024080044242D5
:1011C00000127A0000093D001400002024000020D5
:1011D00000206C49086048608860C8604862886286
:1011E000C862694888630020C86370470021654A67
:1011F000516847F6FF629143027D83681A43436852
:101200001A43C3681A4303681A4303691A43114314
:101210005C4A516070470021017501604160816046
:10122000C1600161704759490860704755490968B4
:1012300021F00301534A116011460968014311600E
:1012400070475048006800F00300704729B14D4ACC
:10125000D26B02434B4BDA6304E04A4AD26B8243BF
:10126000484BDA6370474A49086070470021454B94
:1012700002689A601A46D1686FF30A01D0E9012327
:101280001A43C3681A4303691A4311433D4AD160A4
:1012900070470021016041608160C1600161704759
:1012A00038480069C0B2704708B501460020009078
:1012B00034481430084400900098006808BD0021AC
:1012C000304B02685A6242689A621A46D16A21F02B
:1012D000F701D0E902231A4303691A4343691A4309
:1012E0001143284AD16270474FF0FF31016000215D
:1012F00041608160C1600161416170472148006BBC
:1013000070472448006870472249086070471D48AC
:10131000806C70471E491431086070471C491831B1
:10132000086070471A491C3108607047184920311D
:10133000086070471849086070471849086070478E
:1013400001218143164A11607047164908607047B1
:10135000014600200B4A526B0A4201D0012000E0F6
:101360000020704707498863704701460020054AFE
:10137000526B0A4201D0012000E000207047014971
:101380008863704700800140FF07C000A000304222
:101390008C05304280800140AC013042B0013042C7
:1013A000B4013042B801304210B50446BE48844210
:1013B00008D101218014FFF7BDFE0021A014FFF722
:1013C000B9FE16E0B948844208D101210014FFF7A4
:1013D000BEFE00212014FFF7BAFE0AE0B4488442A2
:1013E00007D10121C013FFF7B2FE0021E013FFF780
:1013F000AEFE10BD10B50022028802F441520B88E7
:101400004C8823438C882343CC8823430C89234373
:101410004C8923438C892343CC8923431A4302807C
:10142000838B4FF2FF74234083830B8A038210BDAA
:101430002DE9F04F85B005460C464FF00009022714
:101440004FF000084FF0010B0026B246A88B4FF278
:1014500040010840A88302202884B5F81C90A068A9
:10146000022801D100BF38E0A08810B94FF0010B6D
:1014700001E04FF0020B8D48854200D100E000BF33
:101480006846FFF7D0FDDDF800A0E088B0F5007FEA
:101490000AD14FEA1A2000EB80004000A168B0FB9F
:1014A000F1F0401D86B20BE04FEA4B10BAFBF0F0B2
:1014B00000EB80004000A168B0FBF1F0401D86B257
:1014C0000A20B6FBF0F606F00108A6EB0800C0F310
:1014D0004F074FF6FF7000EA0828022F01DBFF2FAD
:1014E00002DD02274FF00008E08840EA0800384398
:1014F0002884A088A189084361880843218808437B
:1015000040F4006040EA0909A5F81C9005B0BDE868
:10151000F08F0021018041808180C1800181418163
:101520008181C181072101827047002101804180B2
:101530008180C1800221816000218181704721B1B9
:10154000028842F04002028004E002884FF6BF7336
:101550001A400280704721B1828B42F480628283FC
:1015600004E0828B4FF6FF331A408283704730B518
:10157000002400230C110125A540ABB21AB18588C7
:101580001D43858002E085889D43858030BD1AB16A
:1015900083880B43838002E083888B43838070477A
:1015A00081817047014688897047A1F57E42FF3AE4
:1015B00004D0028842F48072028004E002884FF670
:1015C000FF631A400280704721B1828842F0040212
:1015D000828004E082884FF6FB731A408280704755
:1015E00002884FF2FF731A40028002880A43028089
:1015F0007047018841F480510180704721B1028811
:1016000042F40052028004E002884DF6FF731A4053
:101610000280704702460020012901D0108B00E0B3
:10162000908A70470146088A7047B1F5804F04D10F
:10163000028842F48042028004E002884BF6FF7385
:101640001A40028070470246002013890B4201D0E5
:10165000012000E000207047CA4302817047F0B5C6
:101660000246002000240023002501F00F07012678
:10167000BE40B4B20B1101269E40B3B2968806EA72
:1016800003051689264202D00DB1012000E000209A
:10169000F0BD10B5002201F00F040123A3409AB25F
:1016A000D343038110BD00000030014000380040EA
:1016B000003C004010B50446FE48844208D1012198
:1016C000C014FFF737FD0021E014FFF733FDC4E03D
:1016D000B4F1804F08D101210846FFF738FD002101
:1016E0000120FFF734FDB8E0F348844208D101211E
:1016F0000220FFF72CFD00210220FFF728FDACE0BF
:10170000EE48844208D101210420FFF720FD00218A
:101710000420FFF71CFDA0E0E948844208D1012124
:101720000820FFF714FD00210820FFF710FD94E0CA
:10173000E448844208D101211020FFF708FD002170
:101740001020FFF704FD88E0DF48844208D1012122
:101750002020FFF7FCFC00212020FFF7F8FC7CE0B4
:10176000DA48844208D101214014FFF7E3FC00214C
:101770006014FFF7DFFC70E0D548844209D10121F5
:10178000C804FFF7D7FC00214FF40020FFF7D2FC7C
:1017900063E0D048844209D101210805FFF7CAFC63
:1017A00000214FF48010FFF7C5FC56E0CA48844280
:1017B00009D101214805FFF7BDFC00214FF40010BD
:1017C000FFF7B8FC49E0C548844208D10121402018
:1017D000FFF7BDFC00214020FFF7B9FC3DE0C04809
:1017E000844208D101218020FFF7B1FC0021802034
:1017F000FFF7ADFC31E0BB48844208D101218015E0
:10180000FFF7A5FC0021A015FFF7A1FC25E0B648D5
:10181000844209D101210804FFF78CFC00214FF418
:101820008030FFF787FC18E0B048844209D10121DD
:101830004804FFF77FFC00214FF40030FFF77AFCEB
:101840000BE0AB48844208D101218804FFF772FC09
:1018500000214FF48020FFF76DFC10BD00220288AC
:10186000944B98420ED0994B98420BD0B0F1804FD8
:1018700008D0914B984205D0904B984202D0904BA3
:10188000984204D14FF68F731A404B881A438D4B00
:10189000984207D08C4B984204D04FF6FF431A4031
:1018A000CB881A4302808B8883850B880385814B04
:1018B00098420BD0854B984208D08B4B984205D06C
:1018C0008A4B984202D08A4B984201D10B7A038608
:1018D00001238382704770B5002400220023058C09
:1018E0004FF6FE7635400584028C8388048B4FF6D4
:1018F0008F752C40B51E2C400D882C43751E2A4038
:101900000D892A434D882A436A4DA8420BD06F4D5A
:10191000A84208D0744DA84205D0744DA84202D008
:10192000734DA84213D14FF6F7752A404D892A43CB
:101930004FF6FB752A408D882A434FF6FF652B40F2
:101940004FF6FF552B408D892B43CD892B43838048
:101950000483CD888586028470BD70B50024002282
:101960000023058C4FF6EF7635400584028C838882
:10197000048B48F6FF752C404FF6FF452C400D8830
:101980004FF6FF7606EA05252C434FF6DF752A4011
:101990000D8906EA05152A434D8806EA05152A43EE
:1019A000444DA84202D0494DA8421DD14FF67F7543
:1019B0002A404D894FF6FF7606EA05152A434FF671
:1019C000BF752A408D8806EA05152A434FF6FF3574
:1019D0002B404FF2FF752B408D8906EA85052B437E
:1019E000CD8906EA85052B4383800483CD8805874E
:1019F000028470BD70B5002400220023058C4FF6D0
:101A0000FF6635400584028C8388848B4FF68F7582
:101A10002C404FF6FC752C400D882C434FF6FF559B
:101A20002A400D894FF6FF7606EA05252A434D88A0
:101A300006EA05252A431F4DA84202D0234DA8429D
:101A40001DD14FF2FF752A404D894FF6FF7606EA09
:101A500005252A434FF6FF352A408D8806EA0525DD
:101A60002A434EF6FF752B404DF6FF752B408D89AE
:101A700006EA05152B43CD8906EA05152B4383801D
:101A80008483CD888587028470BD70B500220023D1
:101A90000024058C4EF6FF7635400584038C84883F
:101AA000828B48F6FF752A404FF6FF452A400D8885
:101AB00020E00000002C014000040040000800402D
:101AC000000C0040001000400014004000340140B1
:101AD000004C0140005001400054014000180040FB
:101AE000001C004000200040004001400044014034
:101AF000004801404FF6FF7606EA05252A434DF6D9
:101B0000FF752B400D8906EA05352B434D8806EA03
:101B100005352B43FA4DA84202D0FA4DA84208D110
:101B20004BF6FF752C408D894FF6FF7606EA85153A
:101B30002C4384808283CD88A0F84050038470BDFC
:101B4000828B4FF2FF331A408283828B4FF6FF73F2
:101B500003EA01231A4382837047F0B50C46154609
:101B6000002200210026078C4EF6FF7C07EA0C07B6
:101B70000784828B018C4FF6FF7707EA043640F624
:101B8000FF473A404FF6FF7707EA05273A434FF6FB
:101B9000FF7707EA03373A43D94FB8420ED0D94FFF
:101BA000B8420BD0B0F1804F08D0D74FB84205D023
:101BB000D64FB84202D0D64FB84206D14DF6FF7785
:101BC000394046F48057394305E047F6FF5739401E
:101BD00044F48057394382830184F0BD828B4FF6F1
:101BE000F3731A408283828B0A4382837047F0B575
:101BF0000C461546002200210026078C4FF6FF6C8C
:101C000007EA0C070784828B018C4FF6FF7707EAFF
:101C100004264FF60C773A404FF6FF7707EA031792
:101C20002F433A43B64FB8420ED0B64FB8420BD00E
:101C3000B0F1804F08D0B44FB84205D0B34FB8428E
:101C400002D0B34FB84206D14FF6FF57394046F4A1
:101C50008077394305E04FF2FF57394044F48077ED
:101C6000394382830184F0BD028B4FF2FF331A4067
:101C70000283028B4FF6FF7303EA01231A430283A8
:101C80007047F0B50C461546002200210026078C4F
:101C90004FF6EF7C07EA0C070784028B018C4FF6A6
:101CA000FF7707EA041640F6FF473A404FF6FF7702
:101CB00007EA03373A434FF6FF7707EA05273A4327
:101CC0008F4FB8420ED08F4FB8420BD0B0F1804F3B
:101CD00008D08D4FB84205D08C4FB84202D08C4FFF
:101CE000B84206D14FF6DF77394046F01007394346
:101CF00005E04FF65F77394044F01007394302831F
:101D00000184F0BD028B4FF6F3731A400283028BFD
:101D10000A4302837047F0B50C46154600220021A5
:101D2000068C4FF6FE773E400684028B018C4FF600
:101D30000C7632407E1C06EA03162E433243704E68
:101D4000B0420ED06F4EB0420BD0B0F1804F08D0F1
:101D50006D4EB04205D06D4EB04202D06C4EB042D6
:101D600006D14FF6FD76314044F00106314305E0DF
:101D70004FF6F576314044F0010631430283018489
:101D8000F0BD70B505460C465D4885420ED05D48F5
:101D900085420BD0B5F1804F08D05B48854205D015
:101DA0005A48854202D05A48854200D100E000BF1F
:101DB000208850B92389A28861882846FFF7ABFFA5
:101DC000E1882846FFF79EFF25E0208804280AD1F5
:101DD0002389A28861882846FFF753FFE1882846B7
:101DE000FFF742FF17E0208808280AD12389A2883C
:101DF00061882846FFF7FBFEE1882846FFF7EEFEE4
:101E000009E02389A28861882846FFF7A6FEE188B9
:101E10002846FFF795FE70BD2DE9F04105460C46BA
:101E200000260127608808B9022600E00026A08865
:101E3000012801D1022700E001272088A0B92389C9
:101E4000A28861882846FFF766FFE1882846FFF7E9
:101E500059FF23893A4631462846FFF712FFE188A9
:101E60002846FFF701FF13E02389A28861882846EE
:101E7000FFF707FFE1882846FFF7F6FE23893A4679
:101E800031462846FFF747FFE1882846FFF73AFF2B
:101E9000BDE8F0810A884B881A438B881A43CB88A7
:101EA0001A430B891A434B891A438B891A43A0F8AA
:101EB000442070474FF6FF71818000210180C1806E
:101EC0004180017270470021018041808180C18082
:101ED000018141818181C181704700210180418060
:101EE000012181800021C180018170470021018092
:101EF00041808180C18001814181818170470000E2
:101F0000002C014000340140000400400008004063
:101F1000000C004021B1028842F00102028004E07E
:101F200002884FF6FE731A400280704731B1B0F854
:101F3000442042F40042A0F8442005E0B0F84420D8
:101F4000C2F30E02A0F8442070471AB183890B43F4
:101F5000838102E083898B4383817047818270474C
:101F600041EA0203A0F8483070471AB183890B4355
:101F7000838102E083898B438381704701894FF617
:101F8000F8721140018170470A46002101894FF61D
:101F90008F73194011430181704730B504460D46D7
:101FA00029462046FFF7F0FF208940F007002081F6
:101FB00030BD2DE9F04104460D4616461F46602D02
:101FC00006D13B46012231462046FFF75AFE05E086
:101FD0003B46012231462046FFF79DFE294620461A
:101FE000FFF7D2FF208940F007002081BDE8F08193
:101FF00030B50C4600210189C9B24FF6FF7505EADC
:102000000325154325432943018130BD2DE9F041C6
:1020100005460E4617469846002443463A46314642
:102020002846FFF7E5FF2C894FF6F870044044F08E
:1020300007044FF68F70044044F070042C81BDE813
:10204000F081F0B504460D4616461F463B46324623
:1020500029462046FFF7CCFF208940F480402081AC
:10206000F0BD0185828270470A46002101884FF643
:102070008F731940114301807047F0B50C46154627
:102080001E460021002200230189028B038C4FF69B
:10209000F877394021434FF6FC473A4040F20117A8
:1020A0003A434FF6DD773B404FF6FF7707EA0617D6
:1020B0002F433B43018102830384F0BD0A46002184
:1020C000018B4FF68F7319401143018370470A4605
:1020D0000021018B48F6FF7319404FF6FF7303EAA6
:1020E00002231943018370470A460021818B4FF672
:1020F0008F7319401143818370470A460021818BF9
:1021000048F6FF7319404FF6FF7303EA02231943A1
:102110008183704721B1028842F08002028004E08E
:1021200002884FF67F731A400280704721B182887F
:1021300042F00402828004E082884FF6FB731A406A
:102140008280704721B1828842F00802828004E0D8
:1021500082884FF6F7731A408280704721B18288D7
:1021600042F00102828004E082884FF6FE731A403A
:10217000828070470A460021018B4FF6F7731940A1
:102180001143018370470A460021018B4FF2FF7310
:1021900019404FF6FF7303EA022319430183704786
:1021A0000A460021818B4FF6F77319401143818352
:1021B00070470A460021818B4FF2FF7319404FF69A
:1021C000FF7303EA02231943818370470A46002103
:1021D000018B4FF6FB7319401143018370470A4688
:1021E0000021018B4FF6FF3319404FF6FF7303EACE
:1021F00002231943018370470A460021818B4FF661
:10220000FB7319401143818370470A460021818B7B
:102210004FF6FF3319404FF6FF7303EA02231943C9
:10222000818370470A460021018B4FF67F73194066
:102230001143018370470A460021018BC1F30E014F
:102240004FF6FF7303EA02231943018370470A46DE
:102250000021818B4FF67F731940114381837047B2
:102260000A460021818BC1F30E014FF6FF7303EA8A
:1022700002231943818370470A460021018C4FF6DF
:10228000FD7319401143018470470A460021018CF7
:102290004FF6F77319401143018470470A46002135
:1022A000018C4FF6DF7319404FF6FF7303EA0213F8
:1022B0001943018470470A460021018C4FF67F7351
:1022C00019404FF6FF7303EA021319430184704764
:1022D0000A460021018C4FF6FF5319404FF6FF7359
:1022E00003EA02231943018470470A460021018C46
:1022F0004FF2FF7319404FF6FF7303EA02231943AD
:10230000018470470A460021018C4DF6FF73194085
:102310004FF6FF7303EA023319430184704730B567
:10232000002301248C40A3B2048C9C430484048CBD
:1023300002FA01F5ADB22C43048430BD30B5002360
:1023400004248C40A3B2048C9C430484048C02FAC1
:1023500001F5ADB22C43048430BD70B503460020B6
:1023600000241846183001258D40ACB21D8CA543C1
:102370001D8409B1082909D100EB6100056825F029
:10238000700505600568154305600EE00D1FC5F377
:102390004E052844056825F4E045056005684FF6BC
:1023A000FF7606EA02263543056070BD21B102883A
:1023B00042F00202028004E002884FF6FD731A40E8
:1023C0000280704721B1028842F00402028004E0DA
:1023D00002884FF6FB731A400280704721B1828851
:1023E00042F08002828004E082884FF67F731A40B8
:1023F0008280704702884FF6F7731A400280028885
:102400000A430280704782884FF68F731A40828099
:1024100082880A438280704702894FF6F8731A4017
:10242000028102890A430281704702894FF67F7355
:102430001A40028102890A430281704781847047F1
:102440008185704781867047018770478187704713
:10245000A0F84010704702884FF6FF431A400280F0
:1024600002880A43028070470146888E7047014601
:10247000088F70470146888F70470146B1F84000C9
:1024800070470146888C70470146088D70470246A8
:102490000020138A0B4201D0012000E00020704789
:1024A000CA430282704730B5024600200023002450
:1024B000158A05EA0103958905EA010413B10CB1F7
:1024C000012000E0002030BDCA43028270470000B6
:1024D00010B50446FB48844209D101218803FEF768
:1024E00029FE00214FF48040FEF724FE32E0F6483A
:1024F000844209D101214804FEF729FE00214FF44E
:102500000030FEF724FE25E0F048844209D1012185
:102510008804FEF71CFE00214FF48020FEF717FE12
:1025200018E0EB48844209D10121C804FEF70FFEF0
:1025300000214FF40020FEF70AFE0BE0E54884423C
:1025400008D101210805FEF702FE00214FF480109A
:10255000FEF7FDFD10BD2DE9F04786B005460E469D
:102560000024A24600BFA1460027B08900B100BFE9
:102570002F462C8A4CF6FF700440F08804432C82CE
:10258000AC894EF6F3100440B08831890843718954
:1025900008430443AC81AC8A4FF6FF400440B08945
:1025A0000443AC8201A8FEF73EFDC648874202D133
:1025B000DDF810A001E0DDF80CA0A88910F4004FB0
:1025C00008D00AEBCA0000EB0A1031684900B0FBE2
:1025D000F1F807E00AEBCA0000EB0A103168890045
:1025E000B0FBF1F86420B8FBF0F00401200964218D
:1025F00001FB1089A88910F4004F08D0322000EBAD
:10260000C900B0FBF1F000F00700044308E03220FD
:1026100000EB09106421B0FBF1F000F00F0004435F
:102620002C8106B0BDE8F0874FF4165101600021FF
:102630008180C18001810C2141810021818170470D
:1026400010B502460020108A4FF2FF0318400B8895
:102650004C8823438C882343CC882343184310821F
:1026600010BD0021018041808180C180704721B16F
:10267000828942F40052828104E082894DF6FF7320
:102680001A4082817047F0B50346002400260025D9
:102690000020A1F510676A3F00D100BF1846C1F3C2
:1026A000421401F01F06012707FA06F5012C01D19B
:1026B0000C3004E0022C01D1103000E014301AB1CB
:1026C00007682F43076002E00768AF430760F0BD6B
:1026D0001AB1838A0B43838202E0838A8B4383820D
:1026E0007047028A4FF6F0731A400282028A0A4348
:1026F0000282704782894FF2FF731A408281828979
:102700000A438281704721B1828942F002028281AC
:1027100004E082894FF6FD731A4082817047028A75
:102720004FF6DF731A400282028A0A430282704720
:1027300021B1028A42F48042028204E0028A4BF60E
:10274000FF731A4002827047C1F30802828070470B
:1027500001468888C0F308007047818941F0010173
:1027600081817047028BD2B20283028B42EA01223E
:1027700002837047028B02F47F420283028B0A437A
:102780000283704721B1828A42F02002828204E0F3
:10279000828A4FF6DF731A408282704721B1828AA3
:1027A00042F01002828204E0828A4FF6EF731A40F0
:1027B0008282704721B1828A42F00802828204E05C
:1027C000828A4FF6F7731A408282704721B182895C
:1027D00042F40042828103E08289C2F30E028281C8
:1027E000704721B1828A42F40062828204E0828AC8
:1027F0004FF2FF731A4082827047828A4FF6FB7352
:102800001A408282828A0A438282704721B1828A78
:1028100042F00202828204E0828A4FF6FD731A407F
:102820008282704702460020B1F5007F00D100BFD0
:1028300013880B4201D0012000E00020704701F412
:102840000072B2F5007F00D100BFCA43028070471A
:1028500070B502460024002300250020A1F5106673
:102860006A3E00D100BFC1F3421501F01F030126EB
:1028700006FA03F3012D02D19689334006E0022DBA
:1028800002D1168A334001E0968A33400C120126A9
:1028900006FA04F41688344013B10CB1012000E0AC
:1028A000002070BD10B500220023A1F510646A3C21
:1028B00000D100BF0A1201249440A3B2DC4304807B
:1028C00010BD0000003801400044004000480040B6
:1028D000004C00400050004008B50121C820FEF720
:1028E0000FFC6020ADF8000010208DF803000320DD
:1028F0008DF8020069463448FEF74CF960213248F1
:10290000FEF7F3F92020ADF8000069462F48FEF7E6
:1029100041F920212D48FEF7E8F91E20ADF800000E
:1029200069462B48FEF736F91A212948FEF7DDF9EA
:1029300004212748FEF7DBF908BD00BF0100A0F124
:102940000100FBD1704700B5012022490860FFF764
:10295000F4FF00202049C1F890010220FFF7EDFFAD
:1029600000BD00B501201B4908604FF00200FFF7D1
:10297000E4FF00201849C1F890010120FFF7DDFFB6
:1029800000BD10B50020134908604FF03C0003F073
:1029900098FA01201049C1F8900100200D49086003
:1029A00010BD30B5054618230BE025FA03F000F002
:1029B000010414B1FFF7D5FF01E0FFF7C4FF581E73
:1029C000C3B2002BF1DC30BD00180140000C014007
:1029D000001C0140908123420080234208B5012160
:1029E0002020FEF78DFB4FF40060ADF800001020B2
:1029F0008DF8030003208DF8020069460D48FEF7AC
:102A0000C9F84FF400610B48FEF771F908BD10B525
:102A10004FF400610748FEF768F9C82003F074FA24
:102A20004FF400610348FEF762F91E2003F06CFAD0
:102A300010BD0000001401407FB504460D46012181
:102A40002020FEF76AFBADF8084041F61F40ADF8C4
:102A500004000020ADF80A00ADF8060001A91048F6
:102A6000FEF7FCFE012211460E48FFF76EFA3720F2
:102A70008DF8000000208DF8010003208DF8020081
:102A800001208DF803006846FDF793FE01221146F0
:102A90000348FFF75AFA01210148FFF73BFA7FBDCF
:102AA000001400400004004070B504460E462EB1EC
:102AB0004FF48061FE48FEF718F904E04FF480619E
:102AC000FB48FEF714F94FF40071F948FEF70FF9CF
:102AD00000251BE04FF40051F548FEF708F914F00B
:102AE000800F05D04FF48051F148FEF7FEF804E066
:102AF0004FF48051EE48FEF7FAF84FF40051EC48DD
:102B0000FEF7F3F86006040E681CC5B2082DE1DB81
:102B10004FF40071E648FEF7E8F84FF48061E448AE
:102B2000FEF7E3F870BD70B504460D4605F1B0013F
:102B3000C8B20021FFF7B8FF102141EA14100021AC
:102B4000FFF7B2FF04F00F0141F001000021FFF791
:102B5000ABFF70BD10B500218D20FFF7A5FF002150
:102B60001420FFF7A1FF0021AF20FFF79DFF10BD4C
:102B700010B500218D20FFF797FF00211020FFF7EF
:102B800093FF0021AE20FFF78FFF10BD70B500242A
:102B900019E004F1B001C8B20021FFF785FF002160
:102BA0000220FFF781FF00211020FFF77DFF0025A5
:102BB00005E001210020FFF777FF681CC5B2802DDA
:102BC000F7DB601CC4B2082CE3DB70BD2DE9F041DB
:102BD00006460C4617464FF000080025A7F12000D6
:102BE00000F0FF087F2E02DD0026A01CC4B2601C8E
:102BF000C1B23046FFF797FF00250AE008EB480115
:102C0000AC4A02EB4101485D0121FFF74DFF681C12
:102C1000C5B2062DF2DBBDE8F08110B502460120F9
:102C200000E050430B00A1F10104E1B2F9D110BD65
:102C30002DE9FF5F074691461D460E9E4FF0000AA4
:102C4000002433E0281B401EC1B20A20FFF7E5FF35
:102C5000B9FBF0F00A21B0FBF1F201FB1208BAF166
:102C6000000F13D1681EA04210DDB8F1000F0BD188
:102C7000B34606EBDB71491001FB0471C8B2202298
:102C80000199FFF7A3FF0FE04FF0010AB34606EBEF
:102C9000DB71491001FB0471C8B208F13001CAB2FE
:102CA0000199FFF793FF00BF601CC4B2AC42C9DBBF
:102CB000BDE8FF9F2DE9F04104460F46154600266A
:102CC0000EE0AA5D39462046FFF780FF04F10800B8
:102CD000C4B2782C02DD0024B81CC7B2701CC6B286
:102CE000A85D0028EDD1BDE8F0812DE9F843054647
:102CF000894614461E46089F002C10DA6EA24946EB
:102D00002846FFF7D7FFC4F1000805F10801C8B253
:102D10003346424649460097FFF78AFF07E0701C9A
:102D2000C3B22246494628460097FFF781FFBDE817
:102D3000F8832DE9F04180460E46154600273146BE
:102D40004046FFF7F0FE00240AE05C4A02EB8511E2
:102D5000085D0121FFF7A8FE781CC7B2601CC4B251
:102D6000102CF2DB701CC1B24046FFF7DCFE0024E1
:102D70000CE06900491C514A02EB4111085D012138
:102D8000FFF792FE781CC7B2601CC4B2102CF0DBB7
:102D9000BDE8F0812DE9F05F06460F4690461C46DF
:102DA000DDF828A04FF0000BE11704EB5171C910BA
:102DB000B4EBC10105D12046E11704EB5171CD10F0
:102DC00005E02046E11704EB5171C9104D1C3D464A
:102DD00015E029463046FFF7A6FEB1460BE05946FE
:102DE0000BF1010B1AF801000121FFF75DFE09F15B
:102DF000010000F0FF09C145F1DB681CC5B2A54226
:102E0000E7DBBDE8F09F08B501214FF49470FEF7B1
:102E100077F94FF4FC40ADF8000010208DF8030066
:102E200003208DF8020069462148FDF7B3FE4FF4F8
:102E3000FC411F48FDF759FF0320ADF8000069462B
:102E40001F48FDF7A7FE03211D48FDF74EFF4FF475
:102E50000040ADF8000069461548FDF79BFE4FF4B1
:102E600000411348FDF741FF4FF400611048FDF7A2
:102E70003CFF642003F048F84FF400610C48FDF774
:102E800036FF642003F040F84FF400610848FDF776
:102E90002CFF0021AE20FFF707FE00210220FFF7E4
:102EA00003FE00211020FFF7FFFD0021402009E074
:102EB000002001405EBC00082D000000280000201A
:102EC00000100140FFF7F0FD00218120FFF7ECFD2D
:102ED0000021CF20FFF7E8FD0021A120FFF7E4FD4E
:102EE0000021C820FFF7E0FD0021A620FFF7DCFD50
:102EF0000021A820FFF7D8FD00213F20FFF7D4FDD7
:102F000000218120FFF7D0FD0021FF20FFF7CCFD3D
:102F10000021D320FFF7C8FD00210846FFF7C4FDBC
:102F20000021D520FFF7C0FD00218020FFF7BCFD68
:102F30000021D920FFF7B8FD0021F120FFF7B4FDF3
:102F40000021DA20FFF7B0FD00211220FFF7ACFDD1
:102F50000021DB20FFF7A8FD00214020FFF7A4FDA2
:102F600000212020FFF7A0FD00210220FFF79CFD9B
:102F700000218D20FFF798FD00211420FFF794FD1C
:102F80000021A420FFF790FD0021A620FFF78CFD73
:102F90000021AF20FFF788FD0021AF20FFF784FD5F
:102FA000FFF7F4FD00210846FFF7BDFD08BD000056
:102FB00008B501214420FEF7A3F81820ADF8000061
:102FC00048208DF8030069462C48FDF7E3FD0120F9
:102FD000ADF8000028208DF8030069462848FDF769
:102FE000D9FD08BD10B5044614B10120254908706B
:102FF0002448007858B310212048FDF75CFE50B1FA
:1030000008211E48FDF757FE28B101211C48FDF795
:1030100052FE01281BD10A2002F076FF0020194938
:10302000087010211548FDF746FE08B9012010BDB3
:1030300008211248FDF73FFE08B90220F7E70121F9
:103040000F48FDF738FE012815D10320EFE71021C6
:103050000A48FDF730FE01280DD108210748FDF789
:103060002AFE012807D101210548FDF724FE10B9E9
:103070000120044908700020D9E700000018014031
:1030800000080140A80A002070B50546002405E0AC
:10309000601CC4B2C82C01DD002070BD02213A487A
:1030A000FEF7D1FA0028F3D029463748FEF778FA20
:1030B000002405E0601CC4B2C82C01DD0020ECE750
:1030C00001213148FEF7BFFA0028F3D02E48FEF761
:1030D00069FAC0B2E1E700B587B001210820FEF728
:1030E0000FF801218803FEF718F84FF46040ADF89F
:1030F000180018208DF81B0003208DF81A0006A96F
:103100002248FDF747FD4FF460412048FDF7EDFDF3
:103110000020ADF804004FF48270ADF806000020E6
:10312000ADF808000220ADF80A000120ADF80C004F
:103130004002ADF80E003820ADF810000020ADF8C8
:1031400012000720ADF8140001A90F48FEF752F94C
:1031500001210D48FEF7F3F9FF20FFF795FF07B0B7
:1031600000BD10B50446084800884FF6C7710840F6
:10317000054908800846008820430880012102484C
:10318000FEF7DDF910BD000000380040000C0140E2
:1031900008B501210420FDF7B3FF1020ADF80000B1
:1031A00003208DF8020010208DF80300694628489E
:1031B000FDF7F0FC01210420FDF7A2FF2020ADF86F
:1031C000000003208DF8020010208DF803006946EE
:1031D0001F48FDF7DFFC01210420FDF791FF80204F
:1031E000ADF8000003208DF8020010208DF80300D8
:1031F00069461748FDF7CEFC01210420FDF780FF4A
:103200004020ADF8000004208DF803006946104806
:10321000FDF7C0FC01210820FDF772FF0120ADF889
:10322000000003208DF8020010208DF8030069468D
:103230000848FDF7AFFC08BD10B5FFF7A9FF012155
:103240000448FDF752FD10210148FDF74EFD10BD69
:1032500000080140000C014070B50446002520E044
:1032600014F0800F04D08021FE48FDF73EFD03E0FE
:103270008021FC48FDF73BFDC82002F022FE202102
:10328000F848FDF734FDC82002F01BFE2021F54868
:10329000FDF72BFDC82002F014FE6006040E681C2A
:1032A000C5B2082DDCDB70BD70B500251CE06006E2
:1032B000040E2021EB48FDF71AFDC82002F001FEA4
:1032C0004021E848FDF7F7FC012801D144F0010452
:1032D000C82002F0F6FD2021E248FDF706FDC820D7
:1032E00002F0EFFD681CC5B2082DE0DB204670BD82
:1032F00070B504467E2000EA440040F080051021AD
:10330000D848FDF7F4FC2846FFF7A6FFFFF7CCFFEF
:1033100006461021D348FDF7E8FC304670BD70B575
:1033200004460D467E2000EA44061021CD48FDF7F4
:10333000DEFC3046FFF790FF2846FFF78DFF102197
:10334000C848FDF7D2FC70BD70B505460C4628464E
:10335000FFF7CEFF064646EA04012846FFF7DFFFE7
:1033600070BD70B505460C462846FFF7C1FF0646FE
:1033700026EA04012846FFF7D2FF70BD10B51420DD
:10338000FFF7B6FF044614F0030F03D10321142006
:10339000FFF7DAFF10BD10B503211420FFF7E1FF9E
:1033A00010BD10B50121B048FDF79FFC012002F0CF
:1033B00088FD0121AC48FDF79AFC012002F081FD57
:1033C0000121A948FDF791FC012002F07AFD0F21AF
:1033D0000120FFF7A4FF00BF0120FFF789FF10F0D5
:1033E000100FF9D1012002F06CFD3D211120FFF7F3
:1033F00096FF1E212D20FFF792FF00212C20FFF7C2
:103400008EFF8D212A20FFF78AFF3E212B20FFF718
:1034100086FF40211520FFF782FF10BD10B504463E
:10342000412C24D108210846FFF79BFF3D211120A4
:10343000FFF775FF86211720FFF771FF7F212620F8
:10344000FFF76DFF1E212D20FFF769FF00212C20C3
:10345000FFF765FF8D212A20FFF761FF3E212B201A
:10346000FFF75DFF022002F02CFDFFF787FF10BD84
:103470002DE9FE4F0646884691469A46DDF830B063
:10348000BB2002900020019000900C2E06D00E2E42
:1034900009D1122001901020009005E077200190C2
:1034A0003020009000E000BF00BF019840F0800194
:1034B0000220FFF734FF80210420FFF752FF002194
:1034C0000120FFF72CFF80210A20FFF73DFF002598
:1034D00005E018F805100920FFF721FF6D1C4D4588
:1034E000F7D331460120FFF71AFF0C2E03D18021BC
:1034F0000D20FFF729FF4FF47A7500BF0420FFF776
:10350000F7FE04466D1E2DB114F0010F02D1009894
:103510000442F3D080210D20FFF723FF95B306204E
:10352000FFF7E6FE10F01B0F2DD126200290019828
:10353000204010F0010F01D0CC2002900C2E24D19D
:103540000A20FFF7D5FE04460C20FFF7D1FE00F05D
:1035500007072FB1601E07EBC000CBF8000002E0A8
:10356000E000CBF8000004B90124122C00DD122485
:10357000002505E00920FFF7BBFE0AF805006D1CD9
:10358000A542F7D301E0BB20029080210C20FFF779
:10359000DBFE00210120FFF7C2FE0298BDE8FE8F8E
:1035A00070B588B005460C4608210846FFF7D9FEDD
:1035B00007210D20FFF7B3FE03211420FFF7C4FEFF
:1035C0008DF80C5002A803AB012203A900900C2037
:1035D000FFF74EFF0646262E09D10298102806D185
:1035E0009DF80C0020709DF80D00607000E0BB2677
:1035F000304608B070BDF0B587B0054600270821F9
:103600000846FFF7AEFE00210D20FFF788FE80215F
:103610000E20FFF7A6FE93208DF8080020208DF8DD
:10362000090001A802AB022202A900900C20FFF7BA
:103630001FFF0646262E10D1002407E002A8005DD9
:10364000285502A8005D4740601CC4B2042CF5DB7D
:1036500002A8005DB84200D0BB2680210E20FFF7F3
:1036600073FE03E000080140000C0140304607B043
:10367000F0BD2DE9F0410746884615460421052096
:10368000FFF76FFE00210120FFF749FE80210A208D
:10369000FFF75AFE002405E0395D0920FFF73FFEE1
:1036A000601CC4B24445F7DB03210120FFF737FE5D
:1036B000FF2400BF0520FFF71BFE0646601EC4B2B4
:1036C00014B116F0040FF5D02220FFF711FE287078
:1036D0002120FFF70DFE6870BDE8F08170B588B05D
:1036E000054693208DF80C0070208DF80D00002009
:1036F0008DF8120000240BE0295D03AAA01C1154D0
:103700009DF81200295D48408DF81200601CC4B27B
:10371000042CF1DB0DF11302072103A8FFF7A9FF29
:1037200008210846FFF71DFE02A803AB092203A9E2
:1037300000900C20FFF79CFE0646262E03D102982F
:10374000182800D100E0BB26304608B070BD2DE936
:10375000F04387B006460F46904699468DF80860BC
:103760008DF80970002406E018F8041002AAA01CC5
:103770001154601CC4B2062CF6DB002407E019F8D3
:10378000041002AA04F108001154601CC4B2062CF3
:10379000F5DB01A802AB0C2202A900900E20FFF776
:1037A00067FE0546262D05D10820FFF7A1FD10F084
:1037B000080F00D1BB25284607B0BDE8F083F0B55F
:1037C00087B006460F46A0208DF808008DF80960E6
:1037D0000DF10A02022102A8FFF74BFF01A802AB7C
:1037E000042202A900900C20FFF742FE0546262D78
:1037F00008D10198042805D19DF8080000F00F00B9
:103800000A2800D0BB25262D22D1002404E0385DF3
:1038100002A90855601CC4B2102CF8DB06AA1021BE
:1038200002A8FFF726FF01A802AB122202A900900E
:103830000C20FFF71DFE0546262D08D1019804280F
:1038400005D19DF8080000F00F000A2800D0BB2524
:10385000284607B0F0BDF0B587B005460E463020CB
:103860008DF808008DF809500DF10A02022102A816
:10387000FFF7FFFE01A802AB042202A900900C2072
:10388000FFF7F6FD0746262F0CD10198902809D1A5
:10389000002404E002A8005D3055601CC4B2102C66
:1038A000F8DB00E0BB27384607B0F0BD00B587B0B5
:1038B00050208DF8080000208DF809000DF10A0253
:1038C000022102A8FFF7D5FE01A802AB042202A93B
:1038D00000900C20FFF7CCFD262007B000BDF8B506
:1038E00004460D4617461E460020009069465220A9
:1038F000FFF756FE6846FFF77EFE2046FFF7EEFE16
:1039000023462A4610216020FFF721FF27B13146C8
:103910001020FFF7A0FF03E031461020FFF74FFF14
:10392000FFF7C4FFF8BD00002DE9F0410746002570
:103930000026B4A007F0BCFDB84B3A46B848016871
:10394000B848006804F0B6FA054625B12946B6A085
:1039500007F0AEFD11E0B1480088304486B2002483
:1039600007E0AF480068015DB4A007F0A1FD601C4E
:1039700084B2AA4800688442F3D31EB13146B0A095
:1039800007F096FDB4A007F093FD2846BDE8F0814E
:103990002DE9F047A8B04FF0000900251CA95220DE
:1039A000FFF7FEFD8246262804D01CA95220FFF70F
:1039B000F7FD8246BAF1260F71D11CA8FFF71BFE56
:1039C0002628F9D1FFF723F89DF873009DF87210AF
:1039D000CDE900109DF871309DF87020A3A120A8BA
:1039E00007F072FD9DF873009DF87210CDE900108C
:1039F0009DF871309DF87020A0A11DA807F064FD0E
:103A0000042708E0781E1CA9085C791EC9008840BC
:103A10008144781EC7B2002FF4DC4A469CA117A847
:103A200007F052FD4FF0000920A99AA007F040FDD1
:103A300017A99AA007F03CFD9EA205210020FFF7E0
:103A400039F99EA206210020FFF734F91DAA0521AD
:103A50002820FFF72FF917AA06212D20FFF72AF9B2
:103A600070480068D0F80C80112296A16D4800685B
:103A700004F062F91FFA88F0FFF756FF002687E08E
:103A80002DB967480068805D0DA9085517E0012D24
:103A900006D163480068805D12A908550FE0AEE0CA
:103AA000022D05D15E480068805D08A9085506E032
:103AB000032D04D15A480068805D03A908550DA85C
:103AC000005D2C2806D12DB9012500200DA908552F
:103AD000002425E012A8005D2C2807D1012D05D176
:103AE0000225002012A90855002419E008A8005D4D
:103AF0002C2807D1022D05D10325002008A908553F
:103B000000240DE003A8005D0A2808D1032D06D18A
:103B100000250021601E03AA1154002400E0641C4B
:103B200017A908A807F0D0FE002830D169A007F037
:103B3000BFFC72A201210020FFF7BCF81422032170
:103B40001C20FFF7F6F8152203212E20FFF7F1F8CD
:103B5000162203214020FFF7ECF817220321522000
:103B6000FFF7E7F865A204210020FFF7A3F8012082
:103B700066490870664908604FF0320002F0C4F9E7
:103B800000206449C1F888016349086003E0761C9D
:103B90004645FFF475AF00BF2248006804F0B4FB4F
:103BA0005A48007858BB02205849087001205A49E9
:103BB00008604FF000005749C1F8880157A007F08E
:103BC00077FC4EA201210020FFF774F81422032194
:103BD0001C20FFF7AEF8152203212E20FFF7A9F8CD
:103BE000182203214020FFF7A4F8192203215220B4
:103BF000FFF79FF841A204210020FFF75BF828B0EF
:103C0000BDE8F0870D0A526561642066696C652025
:103C1000646174612069733A0D0A00000C0B002086
:103C2000180B0020040B00200D0A5265616420452A
:103C300072726F723A25640D0A000000256300005D
:103C40000D0A5265616465642064617461206C656D
:103C50006E3A25640D0A0000526561642064617447
:103C600061206F7665720D0A0000000054686520BF
:103C7000436172642049442069733A2025303258E8
:103C80002530325825303258253032580000000097
:103C90002575000025730D0A00000000546865209A
:103CA00043617264204E756D6265722069733A25B6
:103CB000730D0A005549443A00000000436F6465E3
:103CC0003A000000303A2F434152445F5549442E98
:103CD000637376000D0A4F70656E20446F6F72201B
:103CE0005375636365737320BBB6D3ADC0B4B5BD04
:103CF000B5E7D7D3D0ADBBE10D0A00002D2D2D2D9A
:103D00002D2D2D2D2D2D2D2D2D2D2D00A90A0020F1
:103D10008881234200802342940123420D0A4F7080
:103D2000656E20446F6F72204572726F7220CBA255
:103D3000BFA8CAA7B0DC0D0A0000000001460020A1
:103D4000012900D011B9FE4B197000E02620704700
:103D50000146FC4A506820F0FF000843506070475D
:103D600070B5044605E0F748456B15F0450F00D0E7
:103D700000E0F8E700BF0420FDF7EAFA20B10420D4
:103D8000FDF7F0FA032070BD0120FDF7E1FA20B144
:103D90000120FDF7E7FA0120F5E7EA480069A042B3
:103DA00001D01020EFE740F2FF50E6498863084653
:103DB000406908210840C0B2E5E72DE9FC4107460B
:103DC0000D46002600240020009001900820DE49C6
:103DD000086010204860402088600020C8604FF4D0
:103DE000806008610846FDF741FA1020FFF7B8FF30
:103DF000044614B12046BDE8FC81D4480088000484
:103E0000D149086037204860402088600020C860A1
:103E10004FF4806008610846FDF728FA3720FFF765
:103E20009FFF04460CB12046E5E74FF0FF30C8493C
:103E3000086008204860302088600220C8600020A8
:103E40000861012048610846FDF739FA0020BE49A3
:103E5000086033204860402088600020C8604FF42C
:103E6000806008610846FDF701FA3320FFF778FF0C
:103E700004460CB12046BEE70CE04FF40010FDF7FD
:103E800067FA38B1FDF73DFA4DF82600761C022E90
:103E900000D305E0AB48406B40F22A610842ECD009
:103EA00000BF0820FDF754FA20B10820FDF75AFAA8
:103EB0000420A0E70220FDF74BFA20B10220FDF715
:103EC00051FA022097E72020FDF742FA20B1202086
:103ED000FDF748FA06208EE74FF40070FDF738FA38
:103EE00028B14FF40070FDF73DFA072083E740F258
:103EF000FF50FDF737FA00980006009901F47F4162
:103F000040EA0120009901F47F0140EA1120009964
:103F100040EA1160686001980006019901F47F4150
:103F200040EA0120019901F47F0140EA1120019942
:103F300040EA1160286020465DE77CB50546002414
:103F400000200090019000260DB1022600E000261E
:103F50007C48406910F0007F01D00E207CBD7B4979
:103F6000098888B26946FFF728FF04460CB120464D
:103F7000F4E7019810F4802F2CD0744800880004D6
:103F80007149086037204860402088600020C86080
:103F90004FF4806008610846FDF768F93720FFF7A5
:103FA000DFFE04460CB12046D8E7674806600620CD
:103FB00065494860402088600020C8604FF48060F8
:103FC00008610846FDF752F90620FFF7C9FE0446CE
:103FD0002046C3E72520C1E770B5044600255D48AB
:103FE0000078032801D1272070BD5A48007838B1E5
:103FF00058480078012803D056480078022818D184
:10400000022C01D32720EFE7E0B2FFF796FF054629
:104010007DB94C48406820F4C0504A494860084681
:104020004068A1B240EAC12046494860084640685D
:1040300048602846D8E710B5044643480460072086
:1040400041494860402088600020C8604FF480608B
:1040500008610846FDF70AF90720FFF781FE10BD49
:10406000F0B50146002000223A4B1B7881F856300B
:10407000364B1B88A1F85430374B1B681A0E930936
:104080000B70C2F383034B7002F003038B70324B4F
:104090001B68C3F30742CA702F4B1B88C3F3072268
:1040A0000A712D4B1A784A715B681A0E1301CB8086
:1040B000294B5B68C3F30742CB8843EA1213CB80DA
:1040C00002F00F030B72244B9B88C3F30722D30922
:1040D0004B72C2F380138B72C2F34013CB72C2F3E4
:1040E00000130B7300234B731A4B1B783BB1194B16
:1040F0001B78012B03D0174B1B78032B5ED1930742
:104100001B0D0B61144B1A790B6943EA82030B6197
:10411000114B9B681A0E0B6943EA92130B61C2F3B1
:10412000C2030B7502F007034B750B4B9B68C3F37F
:10413000074253098B75C2F38203CB7593070DE0D9
:10414000B40A002000800140200D0020B00A0020A9
:10415000340D0020AC0A00204C0D00205B0F0B76C4
:10416000FE4B1B89C3F307220B7E43EAD2130B7667
:104170000B695B1C0024C1E912340B7E9B1C0124DB
:1041800004FA03F3DC17D1E91256A5FB037C06FB06
:1041900003C305FB0433C1E912730C7A0123A34066
:1041A0000B650024D1E912650B6DA6FB037C05FBB2
:1041B00003C306FB0433C1E912732EE0E84B1B78FE
:1041C000022B2AD1E54B1A7993069B0A0B61E34B2C
:1041D0009B681A0E0B6943EA02230B61DF4B9B6855
:1041E000C3F307420B6913430B61DC4B1B89C3F319
:1041F00007220B695B1C4FF40074A3FB04464FF4C9
:1042000080630025A4FB037C06FB03C304FB05338A
:10421000C1E912734FF400730B65C2F3801301F808
:10422000193F93065B0E4B70CC4B1A7A4B7843EADE
:10423000D2134B7002F07F038B70C84BDB681A0EF1
:10424000D309CB70C2F341130B71C2F382034B71DC
:1042500093071B0F8B71C14BDB68C3F307428B794C
:1042600043EA92138B71C2F34013CB7100230B729C
:1042700002F001034B72B94B9B89C3F30722D309A8
:104280008B72C2F38013CB72C2F340130B73C2F371
:1042900000134B73C2F381038B7302F00303CB73E0
:1042A000AE4B1A7B53080B7401234B74AD4B1B6848
:1042B0001A0ECA74A1F11901AA4B1B68C3F3074275
:1042C0004FEA0224CC85A74B1B88C3F30722CB8D72
:1042D00043EA0203CB85A34B1A784FEA02640C63CE
:1042E0005B684FEA13620B6B43EA02440C639D4B1D
:1042F0005B68C3F307420B6B43EA02240C63994BE0
:104300009B88C3F307220B6B43EA02030B63954BB5
:104310001A794FF034035A54924B9B684FEA136258
:104320004FF035035A548F4B9B68C3F307424FEA53
:1043300002648C638B4B1B89C3F307228B6B43EAAC
:1043400002448C63874B1A7A8B6B43EA02248C639A
:10435000844BDB684FEA13628B6B43EA02038B6387
:10436000804BDB68C3F307424FF03C035B5C43EADE
:1043700012144FF03C035C544FEA02734FEA13549B
:10438000CC87784B9B89C3F30722CB8F43EA020388
:10439000CB87744B1A7B4FEA52044FF040035C54B6
:1043A0004FF001044FF041035C54F0BD70B500269E
:1043B0004FF4803505E06C48446B14F0450F00D095
:1043C00003E02800A5F10105F5D100BF15B114F0F7
:1043D000040F05D003260420FCF7C4FF304670BD4F
:1043E0000120FCF7B5FF18B101260120FCF7BAFF48
:1043F00040F2FF50FCF7B6FF3046F0E72DE9F04100
:1044000005460E464FF0000805E05748476B17F089
:10441000450F00D000E0F8E700BF0420FCF798FF4C
:1044200028B10420FCF79EFF0320BDE8F0810120A5
:10443000FCF78EFF20B10120FCF794FF0120F4E788
:1044400049480069A84201D01020EEE740F2FF5031
:10445000FCF788FF4448446914F4604F03D1200CF2
:1044600030804046E1E714F4005F01D01320DCE720
:1044700014F4804F01D01020D7E714F4004F01D07E
:104480000F20D2E74046D0E738B500240120009045
:10449000FCF7D7FE08B9252038BD3148007804283C
:1044A00021D000203149086002204860C020886087
:1044B0000020C8604FF4806008610846FCF7D6FE13
:1044C000FFF774FF04460CB12046E5E72648406933
:1044D000244908602448806948602348C06988608E
:1044E0002148006AC8601E48007858B11C4800780E
:1044F000012807D01A480078062803D01848007809
:10450000022816D100201949086003204860402085
:1045100088600020C8604FF4806008610846FCF79E
:10452000A5FE69460320FFF769FF04460CB120464B
:10453000B2E70B480078032822D1BDF80000000440
:104540000A49086003204860402088600020C86055
:104550004FF48060086108460AE000004C0D00201E
:10456000AC0A00205C0D002000800140200D0020DE
:10457000FCF77CFEFFF71AFF04460CB120468BE7E0
:10458000FE480078042827D0BDF80000FC490860E8
:10459000BDF800000004FB49086009204860C02005
:1045A00088600020C8604FF4806008610846FCF70E
:1045B0005DFEFFF7FBFE04460CB120466CE7F248B7
:1045C0004069F2490860F04880694860EE48C06977
:1045D0008860ED48006AC86000205DE710B505E01E
:1045E000E948446B14F0450F00D000E0F8E700BF45
:1045F0000420FCF7ADFE20B10420FCF7B3FE03203D
:1046000010BD40F2FF50FCF7ADFE0020F8E770B59A
:1046100000264FF4803505E0DB48446B14F0450F6D
:1046200000D003E02800A5F10105F5D100BF15B1C8
:1046300014F0040F05D003260420FCF793FE304647
:1046400070BD14F0400F03D000264020FCF78AFE16
:104650003046F5E770B500254FF4803404E0802043
:10466000FCF776FE00B103E02000A4F10104F6D1CE
:1046700000BF0CB9032070BD40F2FF50FCF772FE82
:104680002846F8E72DE9F0470027002400260025FA
:10469000A046A146B220BE490875002008604860C7
:1046A0008860C86008610846FCF7A0FD0320FCF79D
:1046B000BDFD0120FCF7B7FD00BF12E00020B149AD
:1046C000086048608860C8604FF4806008610846F0
:1046D000FCF7CCFDFFF7BEFF044604B903E0781CED
:1046E000C7B24A2FEADB00BF14B12046BDE8F0870D
:1046F0004FF4D570A34908600820486040208860C6
:104700000020C8604FF4806008610846FCF7AEFDE9
:10471000FFF77DFF044624B90120984908704FF047
:104720008049002097490860372048604020886011
:104730000020C8604FF4806008610846FCF796FDD1
:104740003720FFF70DFB0446002C4BD134E000204E
:104750008C49086037204860402088600020C8608D
:104760004FF4806008610846FCF780FD3720FFF7B2
:10477000F7FA04460CB12046B8E7864849EA00003B
:104780008049086029204860402088600020C86077
:104790004FF4806008610846FCF768FDFFF71EFFD4
:1047A00004460CB12046A1E777484669012080EA1B
:1047B000D67080F001086D1CB8F1000F03D14FF6E0
:1047C000FF708542C3D34FF6FF70854202D31B248E
:1047D00020468BE706F08040060032D00220674971
:1047E00008702EE01CE06C486649086001204860B3
:1047F000402088600020C8604FF48060086108464F
:10480000FCF734FDFFF7EAFE04460CB120466DE7E5
:104810005D484669012080EAD67080F001086D1C71
:10482000B8F1000F03D14FF6FF708542DBD34FF68E
:10483000FF70854202D31B24204657E703204F49CF
:104840000870204652E77CB5002500240121302065
:10485000FCF756FC012140F20240FCF744FC4FF407
:10486000F850ADF8000018208DF8030003208DF8F3
:10487000020069464948FCF78DF90420ADF80000B4
:1048800018208DF8030003208DF802006946444883
:10489000FCF780F98020ADF8000048208DF8030077
:1048A00003208DF8020069463D48FCF773F9FCF7D8
:1048B0008FFC31208DF8040000208DF805008DF864
:1048C000060001208DF8070001A8FBF772FFFFF733
:1048D000D9FE044614B9FFF7D7FD04461CB9314888
:1048E000FFF7BEFB044634B92E49B1F85410080452
:1048F000FFF7A1FB04461CB90120FFF76DFB04463E
:104900001CB11E480078032812D1264890F85600A2
:1049100020B1244890F85600012801D10A2500E072
:1049200004252846FFF714FA0020FFF707FA04468B
:1049300020467CBD10B50020FCF778FC002010BD9F
:1049400070B58CB006460C46154601210220FCF7D6
:10495000CAFB1548FBF796FF00211348FCF75FF8E8
:1049600009488030019002960395A0080490002029
:104970000590802006908000079017E0AC0A002088
:10498000B00A0020200D0020008001404C0D0020C6
:10499000080D0020000010800080FF800010014002
:1049A00000140140700D0020440402408000089073
:1049B000002009904FF400500A9000200B9001A9AC
:1049C000F948FCF701F80021F748FCF728F80CB08B
:1049D00070BD0146002002E04910421CD0B20129FE
:1049E000FAD170472DE9F84F8146174698460A9C40
:1049F0004FF0000AD3464D464FF0FF36B9F1000F95
:104A000002D12620BDE8F88F0020E849C862E848B6
:104A10000078022805D10402780A40EAC8574FEA14
:104A200068280020E34988604860401E0860012033
:104A300048610020C86008610846FCF740FCDB487C
:104A4000406910F0007F01D00E20DBE7002C21DD53
:104A5000B4F5006F1EDC601E20421BD12046FFF71C
:104A6000B8FF0090D44804601020D349486040202B
:104A700088600020C8604FF4806008610846FCF739
:104A8000F5FB1020FFF76CF98246BAF1000F03D056
:104A90005046B7E72620B5E700980001C549886071
:104AA000084644604FF0FF30086001204861022052
:104AB000C860002008610846FCF701FCBE4807609A
:104AC0001120BD494860402088600020C8604FF434
:104AD000806008610846FCF7C9FB1120FFF740F928
:104AE0008246BAF1000F01D050468BE7B3480078F8
:104AF000002858D101F036FA17E04FF40040FCF7D7
:104B000027FC70B14FF0000B05E0AD48006845F898
:104B10002B000BF1010BBBF1080FF6D32035A94E8A
:104B200003E00EB904206DE7761EA048406B40F20A
:104B30002A610842E1D00820FCF70AFC20B10820D5
:104B4000FCF710FC04205DE70220FCF701FC20B11B
:104B50000220FCF707FC022054E72020FCF7F8FBBA
:104B600020B12020FCF7FEFB06204BE74FF400703D
:104B7000FCF7EEFB28B14FF40070FCF7F3FB0720C5
:104B800040E703E0FCF7BDFB28602D1D4FF400104B
:104B9000FCF7DEFB0028F5D101F0E6F940F2FF500A
:104BA000FCF7E0FB32E08548007801282ED1002296
:104BB00021464846FFF7C4FE002083490870834918
:104BC0000870834908707948C06B40F22A31084365
:104BD0007649C8630120FCF746FB00E0761E724868
:104BE0004438006810F4005F07D17948007820B994
:104BF0007548007808B9002EF0D10EB9042001E7FD
:104C00007148007810B1704890F800A05046F9E65D
:104C10002DE9FF5F17469846DDE90E464FF0000983
:104C2000CA464FF0FF356B49009808604FF000000E
:104C30005E49C8625E480078022805D10402780AFD
:104C400040EAC8574FEA682800205A4988604860FF
:104C5000401E0860012048610020C86008610846C5
:104C6000FCF72DFB5148406910F0007F03D00E2067
:104C700004B0BDE8F09F002C21DDB4F5006F1EDC10
:104C8000601E20421BD12046FFF7A3FE83464A4800
:104C90000460102048494860402088600020C860B7
:104CA0004FF4806008610846FCF7E0FA1020FFF737
:104CB00057F88146B9F1000F03D04846D8E72620BF
:104CC000D6E7012E6ED906FB04F0B0F1007F01D3C8
:104CD0002620CDE74FEA0B103649886006FB04F02A
:104CE00048604FF0FF300860012048610220C86032
:104CF000002008610846FCF7E2FA2F4807601220FE
:104D00002D494860402088600020C8604FF48060D2
:104D100008610846FCF7AAFA1220FFF721F881463D
:104D2000B9F1000F01D04846A2E7244800780028D6
:104D30007ED101F017F91DE04FF40040FCF708FBAD
:104D4000A0B14FF0000A07E01D480068214909683A
:104D500041F82A000AF1010ABAF1080FF4D31D48FC
:104D6000006820301B490860164D03E00DB904208F
:104D70007EE76D1E0D48406B40F22A310842DBD0C1
:104D80000820FCF7E5FA20B10820FCF7EBFA042034
:104D90006EE70220FCF7DCFAF0B10220FCF7E2FA41
:104DA000022065E7A7E000004404024000800140C3
:104DB000AC0A0020340D0020200D0020B40A002091
:104DC00080800140FFFF7F00B60A0020B50A002066
:104DD000B70A0020B80A00202020FCF7B9FA20B159
:104DE0002020FCF7BFFA062042E74FF40070FCF7E2
:104DF000AFFA28B14FF40070FCF7B4FA072037E798
:104E000009E0FCF77EFAF94909680860F74800688C
:104E1000001DF64908604FF40010FCF799FA0028CD
:104E2000EFD14FF48070FCF793FA20B3F04800E024
:104E300028E0007838B1EE480078012803D0EC482B
:104E40000078022817D10020EA4908600C20486049
:104E5000402088600020C8604FF4806008610846E8
:104E6000FCF704FA0C20FEF77BFF8146B9F1000F36
:104E700001D04846FCE601F077F840F2FF50FCF71D
:104E800071FA38E0DC480078012834D106FB04F1DF
:104E900000220098FFF754FD0020D8490870012037
:104EA000D74908700020D7490870D748C06B40F236
:104EB0002A310843D449C8630846C06A40F0080054
:104EC000C86200E06D1ED148006810F4005F01D197
:104ED000002DF7D10DB90420CAE600BFC9480078FB
:104EE00018B9C64800780028F8D0C448007810B136
:104EF000C24890F800904846BAE61CB50446002027
:104F000001900090C24800880004BA4908600D2052
:104F10004860402088600020C8604FF480600861CD
:104F20000846FCF7A3F9B848406B009002E0B64889
:104F3000406B0090009810F0450FF8D00120FCF76E
:104F400007FA20B10120FCF70DFA01201CBD042056
:104F5000FCF7FEF920B10420FCF704FA0320F5E782
:104F6000A94800690D2801D01020EFE740F2FF505A
:104F7000FCF7F8F9A448406901900198C0F3432078
:104F800020700020E2E72DE9FF5F86B017469846C3
:104F9000149D4FF00006304605900490044681466B
:104FA0000390824602900195DDF818B0DDF818B044
:104FB000BBF1000F03D126200AB0BDE8F09F00200E
:104FC0009149C862934988604860401E086001208A
:104FD00048610020C86008610846FCF770F98A48FB
:104FE000406910F0007F01D00E20E5E7804800788E
:104FF000022805D10502780A40EAC8574FEA682816
:10500000002D1FDDB5F5006F1CDC681E284219D18C
:105010002846FFF7DEFC05907648056010207549AC
:105020004860402088600020C8604FF480600861BC
:105030000846FCF71BF91020FEF792FE06461EB14B
:105040003046B9E72620B7E771480088000469496F
:1050500008600D204860402088600020C8604FF440
:10506000806008610846FCF701F90D20FEF778FE24
:1050700006460EB130469FE76348406903904FF003
:10508000FF341BE0641E6248008800045949086030
:105090000D204860402088600020C8604FF4806088
:1050A00008610846FCF7E2F80D20FEF759FE0646B7
:1050B0000EB1304680E7544840690390039810F4DD
:1050C000807F01D1002CDDD10CB9292074E749483B
:1050D0000760182047494860402088600020C86069
:1050E0004FF4806008610846FCF7C0F81820FEF70E
:1050F00037FE06460EB130465EE700204049087094
:105100000598000143498860084645604FF0FF302C
:105110000860012048610020C86008610846FCF76B
:10512000CEF84FF0FF3434480078002874D100F0F6
:1051300019FF43E04FF48040FCF70AF9C8B3019827
:10514000A0EB0900202821D20198A0EB090010F063
:10515000030F04D10198A0EB0900800804E0019836
:10516000A0EB09008008401C02904FF0000A09E003
:10517000DBF80000FCF7C8F80AF1010A0BF1040B98
:1051800009F1040902988245F2D30FE04FF0000ABA
:1051900005E05BF82A00FCF7B7F80AF1010ABAF15A
:1051A000080FF6D30BF1200B09F120096FF04044F2
:1051B00004E0FFE70CB90420FEE6641E1248406BD1
:1051C00040F21A610842B5D00820FCF7C1F820B1BE
:1051D0000820FCF7C7F80420EEE60220FCF7B8F838
:1051E000D8B10220FCF7BEF80220E5E6B80A00209C
:1051F000AC0A0020200D0020B40A0020B60A0020CE
:10520000B50A0020B70A00200080014000040240D7
:10521000B00A0020340D00201AE01020FCF798F8A6
:1052200020B11020FCF79EF80520C5E64FF4007071
:10523000FCF78EF828B14FF40070FCF793F80720C4
:10524000BAE600F091FE40F2FF50FB4988633EE071
:10525000FA48007801283AD1102229460698FFF72B
:105260006FFB0020F6490870F6490870F64908708F
:10527000F148C06B40F21A310843EF49C863084651
:10528000C06A40F00800C86200E0641EEF48006891
:1052900010F4005F01D1002CF7D11CB9FFF7D3FA4D
:1052A000042089E64FF0FF3400E0641EE6480078F1
:1052B00020B9E348007808B9002CF6D10CB90420D5
:1052C0007AE6DF48007810B1DD48007874E640F2F5
:1052D000FF50FCF747F804A8FFF70FFE064603E06F
:1052E00004A8FFF70AFE06463EB99DF810000728FD
:1052F000F6D09DF810000628F2D030465CE62DE985
:10530000FF5F84B0DDE91247002600200390029081
:10531000002580468146019007FB04FBDDF810A0C4
:10532000DDF810A0BAF1000F03D1262008B0BDE8C7
:10533000F09F0020C049C862C54988604860401E8F
:105340000860012048610020C86008610846FBF73A
:10535000B6FFB948406910F0007F01D00E20E5E7A4
:10536000BC480078022808D10402DDE90601400AA1
:1053700040EAC1504912CDE90601002C1FDDB4F509
:10538000006F1CDC601E204219D12046FFF721FB74
:105390000390B14804601020AF4948604020886005
:1053A0000020C8604FF4806008610846FBF75EFF8C
:1053B0001020FEF7D5FC06461EB13046B6E7262083
:1053C000B4E7012F6FD907FB04F0B0F1007F01D3E0
:1053D0002620ABE79F48007838B19E480078012826
:1053E00003D09C48007802282DD19C4800880004F6
:1053F0009949086037204860402088600020C860D4
:105400004FF4806008610846FBF730FF3720FEF755
:10541000A7FC06460EB1304688E78F480760172084
:105420008D494860402088600020C8604FF480604B
:1054300008610846FBF71AFF1720FEF791FC0646A5
:105440000EB1304672E7844906980860192048601A
:10545000402088600020C8604FF4806008610846E2
:10546000FBF704FF1920FEF77BFC06460EB1304621
:105470005CE7039800017649886007FB04F0486008
:105480004FF0FF300860012048610020C8600861CB
:105490000846FBF714FF6948007800286FD1451EC5
:1054A00000F060FD3FE0F0E06348406B10F4804F97
:1054B00035D0ABEB080020281ED2ABEB080010F073
:1054C000030F03D1ABEB0800800803E0ABEB08004F
:1054D0008008401C01904FF0000909E0DAF8000054
:1054E000FBF712FF09F101090AF1040A08F10408A7
:1054F00001988145F2D30FE04FF0000905E05AF81A
:105500002900FBF701FF09F10109B9F1080FF6D3F2
:105510000AF1200A08F120086FF0404503E00DB9B8
:10552000042003E76D1E4448406B40F21A310842E4
:10553000BAD00820FBF70CFF20B10820FBF712FFC0
:105540000420F3E60220FBF703FF20B10220FBF763
:1055500009FF0220EAE61020FBF7FAFE20B1102036
:10556000FBF700FF0520E1E64FF40070FBF7F0FECB
:1055700030B14FF40070FBF7F5FE0720D6E62CE0C3
:105580004FF48070FBF7E4FE00B33248007838B186
:1055900030480078012803D02E480078022815D121
:1055A00000202D4908600C204860402088600020C1
:1055B000C8604FF4806008610846FBF757FE0C2076
:1055C000FEF7CEFB06460EB13046AFE600F0CCFC4F
:1055D00040F2FF50FBF7C6FE57E01848007801285C
:1055E00053D107FB04F110220498FFF7A9F900201A
:1055F00013490870012013490870002012490870EF
:105600000D48C06B40F21A3108430B49C863084685
:10561000C06A40F00800C8624FF0FF3500E06D1E20
:105620000A48006810F4005F01D1002DF7D1BDB920
:10563000FFF709F9042079E600800140B40A002050
:10564000B60A0020B50A0020B70A00200004024074
:10565000340D0020AC0A0020200D0020B00A0020EC
:105660004FF0FF3500E06D1EC248007820B9C248F7
:10567000007808B9002DF6D10DB9042056E6BE48D1
:10568000007810B1BC48007850E640F2FF50FBF7BC
:1056900069FE02A8FFF731FC064603E002A8FFF707
:1056A0002CFC06463EB99DF808000728F6D09DF868
:1056B00008000628F2D0304638E610B5AF48406BF7
:1056C00010F4807F2ED0AE480078012814D100203D
:1056D000AC4908600C204860402088600020C86009
:1056E0004FF4806008610846FBF7C0FD0C20FEF710
:1056F00037FBA149087002E000209F4908709F48CD
:10570000806B40F480709D4988630846C06B4CF202
:105710003A3188439949C8630120964908709648F0
:10572000007810BD0220FBF713FE68B10220FBF7E2
:1057300019FE9248C06B4CF23A3188438F49C863D6
:1057400002208D490870ECE70820FBF701FE68B1E4
:105750000820FBF707FE8948C06B4CF23A318843BA
:105760008649C863042084490870DAE72020FBF7E3
:10577000EFFD68B12020FBF7F5FD8048C06B4CF2CF
:105780003A3188437D49C86306207B490870C8E7E1
:105790001020FBF7DDFD68B11020FBF7E3FD774833
:1057A000C06B4CF23A3188437449C8630520724992
:1057B0000870B6E74FF40070FBF7CAFD70B14FF404
:1057C0000070FBF7CFFD6D48C06B4CF23A31884357
:1057D0006A49C863072068490870A2E70020A0E76B
:1057E00010B5FFF76AFF10BD70B50446002514B967
:1057F0002625284670BD6448008800046149086079
:105800000D204860402088600020C8604FF4806010
:1058100008610846FBF72AFD0D20FEF7A1FA0546B0
:105820000DB12846E6E75548406920602846E1E783
:1058300008B5002000906846FFF7D6FF08B1FF20AA
:1058400008BD0098C0F34320FAE72DE9FE4F8346D8
:105850000C46914600200290002625462C467002F8
:1058600040EAD5566D021BF0030F1ED04FF0000A20
:1058700018E04FF4007000904FEA4A20471946EBB9
:10588000E0733A464148FFF7ADF802904FF40072DA
:105890003E49584605F0D2FF0BF5007B0AF10100A6
:1058A00000F0FF0ACA45E4DB16E0B9F1010F09D1A7
:1058B0004FF400702A46334600905846FFF792F89E
:1058C000029009E04FF400702A463346CDE9000902
:1058D0005846FFF79DF902900298BDE8FE8F2DE92A
:1058E000FE4F81460C469246002002900026254637
:1058F0002C46700240EAD5566D0219F0030F1ED0F7
:105900004FF0000B18E04FF4007249461F4805F0B5
:1059100095FF4FF4007000904FEA4B20471946EB7B
:10592000E0733A461948FFF72EFB029009F500791B
:105930000BF1010000F0FF0BD345E4DB16E0BAF1F8
:10594000010F09D14FF400702A46334600904846B3
:10595000FFF719FB029009E04FF400702A46334626
:10596000CDE9000A4846FFF7CAFC02900298BDE85C
:10597000FE8F0000B70A0020B60A00200080014018
:10598000B50A0020200D0020B00A0020C80D00201C
:1059900010B500240020D64908604FF09000FDF7B4
:1059A00073FB0020FDF770FB0020FDF76DFB00206E
:1059B000FDF76AFBFF20FDF767FB44EA0024FF20A8
:1059C000FDF762FB04430120CA49C1F8B00120463B
:1059D00010BD08B501210820FBF792FB4FF4805061
:1059E000ADF8000010208DF8030003208DF80200B0
:1059F0006946C148FBF7CEF84FF48051BE48FBF72B
:105A000074F90120BA490860FDF765FB0020FDF735
:105A1000A8FBFFF7BDFFB949088008BD10B50024F9
:105A20000020B34908604FF00500FDF72DFBFF2073
:105A3000FDF72AFB04460120AE49C1F8B00120461B
:105A400010BD10B504460020A94908604FF00100C0
:105A5000FDF71AFB2046FDF717FB0120A549C1F809
:105A6000B00110BD10B50020A14908604FF006003C
:105A7000FDF70AFB01209F49C1F8B00110BD10B528
:105A800000209B4908604FF00400FDF7FDFA01205B
:105A90009849C1F8B00110BD2DE9F04106460C4609
:105AA00017460020924908604FF00300FDF7ECFA1A
:105AB000C4F30740FDF7E8FAC4F30720FDF7E4FA62
:105AC000E0B2FDF7E1FA002505E0FF20FDF7DCFA82
:105AD0007055681C85B2BD42F7DB0120844908601F
